:020000040000fa
:08000000820104000000000071
:020000040000fa
:040008007c01000077
:020000040000fa
:04000c007c01000073
:020000040000fa
:040010007c0100006f
:020000040000fa
:040014007c0100006b
:020000040000fa
:040018007c01000067
:020000040000fa
:04001c007c01000063
:020000040000fa
:040020007c0100005f
:020000040000fa
:040024007c0100005b
:020000040000fa
:04002800740200005e
:020000040000fa
:04002c007c01000053
:020000040000fa
:040030007c0100004f
:020000040000fa
:040034007c0100004b
:020000040000fa
:040038007c01000047
:020000040000fa
:04003c007c01000043
:020000040000fa
:040040007c0100003f
:020000040000fa
:040044007c0100003b
:020000040000fa
:040048007c01000037
:020000040000fa
:04004c007c01000033
:020000040000fa
:040050007c0100002f
:020000040000fa
:040054007c0100002b
:020000040000fa
:040058007c01000027
:020000040000fa
:04005c007c01000023
:020000040000fa
:040060007c0100001f
:020000040000fa
:040064007c0100001b
:020000040000fa
:040068007c01000017
:020000040000fa
:04006c007c01000013
:020000040000fa
:040070007c0100000f
:020000040000fa
:040074007c0100000b
:020000040000fa
:040078007c01000007
:020000040000fa
:04007c007c01000003
:020000040000fa
:040080007c010000ff
:020000040000fa
:040084007c010000fb
:020000040000fa
:040088007c010000f7
:020000040000fa
:04008c007c010000f3
:020000040000fa
:040090007c010000ef
:020000040000fa
:040094007c010000eb
:020000040000fa
:040098007c010000e7
:020000040000fa
:04009c007c010000e3
:020000040000fa
:0400a0007c010000df
:020000040000fa
:0400a4007c010000db
:020000040000fa
:0400a8007c010000d7
:020000040000fa
:0400ac007c010000d3
:020000040000fa
:0400b0007c010000cf
:020000040000fa
:0400b4007c010000cb
:020000040000fa
:0400b8007c010000c7
:020000040000fa
:0400bc007c010000c3
:020000040000fa
:0400c0007c010000bf
:020000040000fa
:0400c4007c010000bb
:020000040000fa
:0400c8007c010000b7
:020000040000fa
:0400cc007c010000b3
:020000040000fa
:0400d0007c010000af
:020000040000fa
:0400d4007c010000ab
:020000040000fa
:0400d8007c010000a7
:020000040000fa
:040108007c01000076
:020000040000fa
:04010c007c01000072
:020000040000fa
:040110007c0100006e
:020000040000fa
:040114007c0100006a
:020000040000fa
:040118007c01000066
:020000040000fa
:04011c007c01000062
:020000040000fa
:040120007c0100005e
:020000040000fa
:040124007c0100005a
:020000040000fa
:04012800740200005d
:020000040000fa
:04012c007c01000052
:020000040000fa
:040130007c0100004e
:020000040000fa
:040134007c0100004a
:020000040000fa
:040138007c01000046
:020000040000fa
:04013c007c01000042
:020000040000fa
:040140007c0100003e
:020000040000fa
:040144007c0100003a
:020000040000fa
:040148007c01000036
:020000040000fa
:04014c007c01000032
:020000040000fa
:040150007c0100002e
:020000040000fa
:040154007c0100002a
:020000040000fa
:040158007c01000026
:020000040000fa
:04015c007c01000022
:020000040000fa
:040160007c0100001e
:020000040000fa
:040164007c0100001a
:020000040000fa
:040168007c01000016
:020000040000fa
:04016c007c01000012
:020000040000fa
:040170007c0100000e
:020000040000fa
:040174007c0100000a
:020000040000fa
:040178007c01000006
:020000040000fa
:04017c007c01000002
:020000040000fa
:040180007c010000fe
:020000040000fa
:040184007c010000fa
:020000040000fa
:040188007c010000f6
:020000040000fa
:04018c007c010000f2
:020000040000fa
:040190007c010000ee
:020000040000fa
:040194007c010000ea
:020000040000fa
:040198007c010000e6
:020000040000fa
:04019c007c010000e2
:020000040000fa
:0401a0007c010000de
:020000040000fa
:0401a4007c010000da
:020000040000fa
:0401a8007c010000d6
:020000040000fa
:0401ac007c010000d2
:020000040000fa
:0401b0007c010000ce
:020000040000fa
:0401b4007c010000ca
:020000040000fa
:0401b8007c010000c6
:020000040000fa
:0401bc007c010000c2
:020000040000fa
:0401c0007c010000be
:020000040000fa
:0401c4007c010000ba
:020000040000fa
:0401c8007c010000b6
:020000040000fa
:0401cc007c010000b2
:020000040000fa
:0401d0007c010000ae
:020000040000fa
:0401d4007c010000aa
:020000040000fa
:0401d8007c010000a6
:020000040000fa
:100200008a1f78008b1f780000000600910188008b
:10021000800478000000eb001a003700e2844400fc
:1002200032a0b4009905ba00e284440032a0b400c0
:100230009906ba00e284440032a0b4000006eb0044
:10024000476fde00fd07b200636ce10003003a0077
:10025000ebff07000000eb000a003700606ce100d4
:1002600004003a00005deb008b05e900fdff3e0055
:10027000040037006168e100010032000086eb00f5
:100280000b00070019c7ba001905ba000e04e000f8
:1002900003003a000a00e000e0ff3a000000060018
:1002a000fe07b2009e0188008a047800f5ff37003f
:1002b000395dba008b05e9000c003200295dba00f7
:1002c0008b05e900080032000c00e00003003a0052
:1002d000e284440032a0b400f5ff370019ddba0013
:1002e0008b05e900faff3a008904e800e184440044
:1002f00032a0b400000006000040da000000fe005a
:0403000000000500f4
:020000040000fa
:100304000fc8200000ff200000018800000000004a
:10031400cc02020000000000da020200000000002b
:100324006402020000000000c8a2ef00803e20002a
:10033400ba01020000000000900202000000000068
:100344009e01020000000000000006006100200081
:10035400811f78008100e900feff3a00cf00780099
:100364000000e9000000e000f8ff3a000000060089
:1003740071262000811f78008100e900feff3a0009
:10038400cf0078000000e9000000e000f8ff3a0028
:1003940000000600800278003302ba000400e00086
:1003a40001003a00000006004416880005007800a9
:1003b400ba01020000000000f7ff37008002780055
:1003c4003302ba000400e00001003a000000060015
:1003d4000417880005007800ba010200000000003c
:1003e400f7ff3700020020009201880063312000eb
:1003f40040062000cc0102000000000000000600be
:10040400020020009201880003332000800c2000a9
:10041400cc010200000000000000060002002000e1
:100424009201880003332000401f2000cc01020009
:100434000000000000000600020020009201880075
:100444006333200040062000cc01020000000000bd
:10045400000006000200200092018800833420007e
:1004640040062000cc01020000000000000006004d
:100474000200200092018800a335200040062000dd
:10048400cc01020000000000000006000200200071
:10049400920188004336200040062000e00102005b
:1004a4000000000000000600020020009201880005
:1004b4000337200040062000e00102000000000095
:1004c4000000060081e0a8009400a9009420a9007f
:1004d4009440a8008400a9008200a9008c00a80010
:1004e40000000600801f7800f0002000ba0102001e
:1004f400000000006740e1000100320003003a0000
:100504000004eb008a020200000000001800b000a2
:100514004f0078008400a900004006000000eb00b2
:100524000001eb008001eb000002eb008002eb0015
:100534008003eb00c822ef00ca22ef00e022ef00a4
:10054400e222ef00080378000600e000a5ff320075
:100554006130e100aaff32006230e100afff3200f7
:100564006330e100b4ff32006430e100b9ff3200cf
:100574006530e100beff32006630e100c3ff3200a7
:100584006730e100c8ff3200a4020200000000004e
:10059400e2ff3700000006000000eb0000077800cf
:1005a4000c000900002f78000007eb000000060093
:1005b400c822ef0000000000ca22ef000000000083
:1005c400c622ef0000000000a8a2ef00ce22ef0038
:1005d40000000000d022ef0000000000cca2ef00d9
:1005e40000000000d422ef0000000000d622ef003b
:1005f40000000000d2a2ef0000000000e022ef00a3
:1006040000000000e222ef0000000000de22ef0004
:080614000000000000000600d8
:020000040000fa
:10061c000200000003000000050000000a000000ba
:10062c00e000000070000000380000001c0000001a
:10063c000e00000007000000070000000e00000084
:10064c001c0000003800000070000000e0000000fa
:10065c0000000000ff8f0000008000000000000080
:10066c00010000000200000004000000080000006f
:10067c00100000002000000040000000800000007e
:10068c00000000008000000040000000200000007e
:10069c001000000008000000040000000200000030
:1006ac000100000000000000180000002400000001
:1006bc004200000081000000000000000800000063
:1006cc00300000004f00000001000000410000005d
:1006dc000000000041000000010000004f0000007d
:0c06ec00300000000800000000000000ca
:020000040000fa
:1006f800020800008000000000000000000c00005c
:100708008000000000000000000800000200000057
:080718000000000000000000d9
:00000001FF
