:020000040000fa
:08000000820104000000000071
:020000040000fa
:040008007c01000077
:020000040000fa
:04000c007c01000073
:020000040000fa
:040010007c0100006f
:020000040000fa
:040014007c0100006b
:020000040000fa
:040018007c01000067
:020000040000fa
:04001c007c01000063
:020000040000fa
:040020007c0100005f
:020000040000fa
:040024007c0100005b
:020000040000fa
:040028007c01000057
:020000040000fa
:04002c007c01000053
:020000040000fa
:040030007c0100004f
:020000040000fa
:040034007c0100004b
:020000040000fa
:040038007c01000047
:020000040000fa
:04003c007c01000043
:020000040000fa
:040040007c0100003f
:020000040000fa
:040044007c0100003b
:020000040000fa
:040048007c01000037
:020000040000fa
:04004c007c01000033
:020000040000fa
:040050007c0100002f
:020000040000fa
:040054007c0100002b
:020000040000fa
:040058007c01000027
:020000040000fa
:04005c007c01000023
:020000040000fa
:040060007c0100001f
:020000040000fa
:040064007c0100001b
:020000040000fa
:040068007c01000017
:020000040000fa
:04006c007c01000013
:020000040000fa
:040070007c0100000f
:020000040000fa
:040074007c0100000b
:020000040000fa
:040078007c01000007
:020000040000fa
:04007c007c01000003
:020000040000fa
:040080007c010000ff
:020000040000fa
:040084007c010000fb
:020000040000fa
:040088007c010000f7
:020000040000fa
:04008c007c010000f3
:020000040000fa
:040090007c010000ef
:020000040000fa
:040094007c010000eb
:020000040000fa
:040098007c010000e7
:020000040000fa
:04009c007c010000e3
:020000040000fa
:0400a0007c010000df
:020000040000fa
:0400a4007c010000db
:020000040000fa
:0400a8007c010000d7
:020000040000fa
:0400ac007c010000d3
:020000040000fa
:0400b0007c010000cf
:020000040000fa
:0400b4007c010000cb
:020000040000fa
:0400b8007c010000c7
:020000040000fa
:0400bc007c010000c3
:020000040000fa
:0400c0007c010000bf
:020000040000fa
:0400c4007c010000bb
:020000040000fa
:0400c8007c010000b7
:020000040000fa
:0400cc007c010000b3
:020000040000fa
:0400d0007c010000af
:020000040000fa
:0400d4007c010000ab
:020000040000fa
:0400d8007c010000a7
:020000040000fa
:040108007c01000076
:020000040000fa
:04010c007c01000072
:020000040000fa
:040110007c0100006e
:020000040000fa
:040114007c0100006a
:020000040000fa
:040118007c01000066
:020000040000fa
:04011c007c01000062
:020000040000fa
:040120007c0100005e
:020000040000fa
:040124007c0100005a
:020000040000fa
:040128007c01000056
:020000040000fa
:04012c007c01000052
:020000040000fa
:040130007c0100004e
:020000040000fa
:040134007c0100004a
:020000040000fa
:040138007c01000046
:020000040000fa
:04013c007c01000042
:020000040000fa
:040140007c0100003e
:020000040000fa
:040144007c0100003a
:020000040000fa
:040148007c01000036
:020000040000fa
:04014c007c01000032
:020000040000fa
:040150007c0100002e
:020000040000fa
:040154007c0100002a
:020000040000fa
:040158007c01000026
:020000040000fa
:04015c007c01000022
:020000040000fa
:040160007c0100001e
:020000040000fa
:040164007c0100001a
:020000040000fa
:040168007c01000016
:020000040000fa
:04016c007c01000012
:020000040000fa
:040170007c0100000e
:020000040000fa
:040174007c0100000a
:020000040000fa
:040178007c01000006
:020000040000fa
:04017c007c01000002
:020000040000fa
:040180007c010000fe
:020000040000fa
:040184007c010000fa
:020000040000fa
:040188007c010000f6
:020000040000fa
:04018c007c010000f2
:020000040000fa
:040190007c010000ee
:020000040000fa
:040194007c010000ea
:020000040000fa
:040198007c010000e6
:020000040000fa
:04019c007c010000e2
:020000040000fa
:0401a0007c010000de
:020000040000fa
:0401a4007c010000da
:020000040000fa
:0401a8007c010000d6
:020000040000fa
:0401ac007c010000d2
:020000040000fa
:0401b0007c010000ce
:020000040000fa
:0401b4007c010000ca
:020000040000fa
:0401b8007c010000c6
:020000040000fa
:0401bc007c010000c2
:020000040000fa
:0401c0007c010000be
:020000040000fa
:0401c4007c010000ba
:020000040000fa
:0401c8007c010000b6
:020000040000fa
:0401cc007c010000b2
:020000040000fa
:0401d0007c010000ae
:020000040000fa
:0401d4007c010000aa
:020000040000fa
:0401d8007c010000a6
:020000040000fa
:100200008a1f78008b1f780000000600910188008b
:10021000800478000000eb001a003700e2844400fc
:1002200032a0b4009905ba00e284440032a0b400c0
:100230009906ba00e284440032a0b4000006eb0044
:10024000476fde00fd07b200636ce10003003a0077
:10025000ebff07000000eb000a003700606ce100d4
:1002600004003a00005deb008b05e900fdff3e0055
:10027000040037006168e100010032000086eb00f5
:100280000b00070019c7ba001905ba000e04e000f8
:1002900003003a000a00e000e0ff3a000000060018
:1002a000fe07b2009e0188008a047800f5ff37003f
:1002b000395dba008b05e9000c003200295dba00f7
:1002c0008b05e900080032000c00e00003003a0052
:1002d000e284440032a0b400f5ff370019ddba0013
:1002e0008b05e900faff3a008904e800e184440044
:1002f00032a0b400000006000040da000000fe005a
:0403000000000500f4
:020000040000fa
:100304000fc8200000ff200000018800000000004a
:1003140022030200000000002e030200000000007f
:10032400020302000000000000000600610020003b
:10033400811f78008100e900feff3a00cf007800b9
:100344000000e9000000e000f8ff3a0000000600a9
:1003540071262000811f78008100e900feff3a0029
:10036400cf0078000000e9000000e000f8ff3a0048
:1003740000000600801f7800831f7800841f780027
:10038400851f7800861f78000000eb00c822ef006c
:10039400050e2000740020001300200005037800df
:1003a4004133de0000000000461688000000000013
:1003b40040062000aa010200000000000430e10011
:1003c400f7ff3a004133dd000000000046168800c4
:1003d4000000000040062000aa0102000000000006
:1003e4000530e100f7ff3a008301e900ecff3a0031
:1003f400cf0278004f027800cf0178004f007800d8
:1004040000000600801f7800831f7800841f780096
:100414000000eb008001eb000002eb00c822ef00bb
:10042400ca22ef0024002000400620008381ea0055
:100434005316880000000000aa010200000000001a
:10044400400620008381ea00531688000000000063
:10045400aa010200000000000402e900f2ff3a00d1
:100464004f027800cf0178004f00780000000600aa
:10047400801f7800831f7800841f78000000eb0041
:100484008001eb000002eb00c822ef00ca22ef005b
:1004940024002000a00f20008381ea005316880066
:1004a40000000000aa01020000000000a00f2000cc
:1004b4008381ea005316880000000000aa010200ac
:1004c400000000000402e900f2ff3a004f02780045
:1004d400cf0178004f00780000000600801f7800ec
:1004e400831f7800841f78000000eb008001eb007c
:1004f4000002eb00c822ef00ca22ef00c301200073
:1005040064012000400620008301d20053168800b5
:1005140000000000aa010200000000000402e9003b
:10052400f8ff3a004f027800cf0178004f007800be
:1005340000000600801f7800831f7800841f780065
:100544000000eb008001eb000002eb00c822ef008a
:10055400ca22ef008303200064012000400620002b
:100564008301d3005316880000000000aa01020092
:10057400000000000402e900f8ff3a004f0278008e
:10058400cf0178004f00780000000600801f78003b
:10059400821f7800831f7800841f7800851f7800ed
:1005a4000000eb000001eb008001eb00c822ef002b
:1005b400ca22ef0002012000830020000500280069
:1005c400030241004416880000000000e0152000ea
:1005d400aa010200000000000201d2008301d3003e
:1005e4000518e100f6ff3a00cf0278004f027800c8
:1005f400cf0178004f0178004f007800000006001a
:10060400861f7800a61680000600e00059ff32001d
:100614006130e1007bff32006230e10094ff320080
:100624006330e100adff32006430e100c1ff32000d
:100634006530e100d5ff32004f037800f0ff37004a
:100644000000eb00000778000c000900002f780080
:100654000007eb0000000600c822ef0000000000c5
:10066400ca22ef0000000000c622ef0000000000d4
:10067400a8a2ef00ce22ef0000000000d022ef007d
:1006840000000000cca2ef0000000000d422ef0024
:1006940000000000d622ef0000000000d2a2ef000c
:1006a40000000000e022ef0000000000e222ef0062
:1006b40000000000dea2ef000000000000000600c1
:020000040000fa
:1006c400020800008000000000000000000c000090
:1006d400800000000000000000080000020000008c
:0806e40000000000000000000e
:020000040000fa
:1006ec000200000003000000050000000a000000ea
:00000001FF
